{
  "_format": "hh-sol-artifact-1",
  "contractName": "ThreeSwap",
  "sourceName": "contracts/ThreeSwap.sol",
  "abi": [
    {
      "inputs": [
        {
          "internalType": "contract IERC20",
          "name": "_wbtc",
          "type": "address"
        },
        {
          "internalType": "contract IERC20",
          "name": "_weth",
          "type": "address"
        },
        {
          "internalType": "contract IERC20",
          "name": "_usdc",
          "type": "address"
        },
        {
          "internalType": "contract IOracle",
          "name": "_oracle",
          "type": "address"
        }
      ],
      "stateMutability": "nonpayable",
      "type": "constructor"
    },
    {
      "inputs": [],
      "name": "DECIMALS",
      "outputs": [
        {
          "internalType": "uint256",
          "name": "",
          "type": "uint256"
        }
      ],
      "stateMutability": "view",
      "type": "function"
    },
    {
      "inputs": [],
      "name": "FIXED_USDC_PRICE",
      "outputs": [
        {
          "internalType": "uint256",
          "name": "",
          "type": "uint256"
        }
      ],
      "stateMutability": "view",
      "type": "function"
    },
    {
      "inputs": [],
      "name": "oracle",
      "outputs": [
        {
          "internalType": "contract IOracle",
          "name": "",
          "type": "address"
        }
      ],
      "stateMutability": "view",
      "type": "function"
    },
    {
      "inputs": [
        {
          "internalType": "uint256",
          "name": "",
          "type": "uint256"
        }
      ],
      "name": "oracleKeys",
      "outputs": [
        {
          "internalType": "string",
          "name": "",
          "type": "string"
        }
      ],
      "stateMutability": "view",
      "type": "function"
    },
    {
      "inputs": [
        {
          "internalType": "uint256",
          "name": "amount",
          "type": "uint256"
        },
        {
          "internalType": "enum ThreeSwap.TokenType",
          "name": "from",
          "type": "uint8"
        },
        {
          "internalType": "enum ThreeSwap.TokenType",
          "name": "to",
          "type": "uint8"
        }
      ],
      "name": "swap",
      "outputs": [
        {
          "internalType": "uint256",
          "name": "",
          "type": "uint256"
        }
      ],
      "stateMutability": "nonpayable",
      "type": "function"
    },
    {
      "inputs": [
        {
          "internalType": "uint256",
          "name": "",
          "type": "uint256"
        }
      ],
      "name": "tokens",
      "outputs": [
        {
          "internalType": "contract IERC20",
          "name": "",
          "type": "address"
        }
      ],
      "stateMutability": "view",
      "type": "function"
    }
  ],
  "bytecode": "0x60806040523480156200001157600080fd5b5060405162001c3c38038062001c3c833981810160405281019062000037919062000346565b83600080600281111562000050576200004f620003b8565b5b60038110620000645762000063620003e7565b5b0160006101000a81548173ffffffffffffffffffffffffffffffffffffffff021916908373ffffffffffffffffffffffffffffffffffffffff16021790555082600060016002811115620000bd57620000bc620003b8565b5b60038110620000d157620000d0620003e7565b5b0160006101000a81548173ffffffffffffffffffffffffffffffffffffffff021916908373ffffffffffffffffffffffffffffffffffffffff160217905550816000600280811115620001295762000128620003b8565b5b600381106200013d576200013c620003e7565b5b0160006101000a81548173ffffffffffffffffffffffffffffffffffffffff021916908373ffffffffffffffffffffffffffffffffffffffff16021790555080600360006101000a81548173ffffffffffffffffffffffffffffffffffffffff021916908373ffffffffffffffffffffffffffffffffffffffff1602179055506040518060400160405280600781526020017f4254432f5553440000000000000000000000000000000000000000000000000081525060046000600281106200020b576200020a620003e7565b5b0190816200021a919062000690565b506040518060400160405280600781526020017f4554482f555344000000000000000000000000000000000000000000000000008152506004600160028110620002695762000268620003e7565b5b01908162000278919062000690565b505050505062000777565b600080fd5b600073ffffffffffffffffffffffffffffffffffffffff82169050919050565b6000620002b58262000288565b9050919050565b6000620002c982620002a8565b9050919050565b620002db81620002bc565b8114620002e757600080fd5b50565b600081519050620002fb81620002d0565b92915050565b60006200030e82620002a8565b9050919050565b620003208162000301565b81146200032c57600080fd5b50565b600081519050620003408162000315565b92915050565b6000806000806080858703121562000363576200036262000283565b5b60006200037387828801620002ea565b94505060206200038687828801620002ea565b93505060406200039987828801620002ea565b9250506060620003ac878288016200032f565b91505092959194509250565b7f4e487b7100000000000000000000000000000000000000000000000000000000600052602160045260246000fd5b7f4e487b7100000000000000000000000000000000000000000000000000000000600052603260045260246000fd5b600081519050919050565b7f4e487b7100000000000000000000000000000000000000000000000000000000600052604160045260246000fd5b7f4e487b7100000000000000000000000000000000000000000000000000000000600052602260045260246000fd5b600060028204905060018216806200049857607f821691505b602082108103620004ae57620004ad62000450565b5b50919050565b60008190508160005260206000209050919050565b60006020601f8301049050919050565b600082821b905092915050565b600060088302620005187fffffffffffffffffffffffffffffffffffffffffffffffffffffffffffffffff82620004d9565b620005248683620004d9565b95508019841693508086168417925050509392505050565b6000819050919050565b6000819050919050565b6000620005716200056b62000565846200053c565b62000546565b6200053c565b9050919050565b6000819050919050565b6200058d8362000550565b620005a56200059c8262000578565b848454620004e6565b825550505050565b600090565b620005bc620005ad565b620005c981848462000582565b505050565b5b81811015620005f157620005e5600082620005b2565b600181019050620005cf565b5050565b601f82111562000640576200060a81620004b4565b6200061584620004c9565b8101602085101562000625578190505b6200063d6200063485620004c9565b830182620005ce565b50505b505050565b600082821c905092915050565b6000620006656000198460080262000645565b1980831691505092915050565b600062000680838362000652565b9150826002028217905092915050565b6200069b8262000416565b67ffffffffffffffff811115620006b757620006b662000421565b5b620006c382546200047f565b620006d0828285620005f5565b600060209050601f831160018114620007085760008415620006f3578287015190505b620006ff858262000672565b8655506200076f565b601f1984166200071886620004b4565b60005b8281101562000742578489015182556001820191506020850194506020810190506200071b565b868310156200076257848901516200075e601f89168262000652565b8355505b6001600288020188555050505b505050505050565b6114b580620007876000396000f3fe608060405234801561001057600080fd5b50600436106100625760003560e01c80632e0f2625146100675780634f64b2be1461008557806371814807146100b55780637dc0d1d0146100d3578063968d5a25146100f1578063a562f45714610121575b600080fd5b61006f610151565b60405161007c91906109be565b60405180910390f35b61009f600480360381019061009a9190610a19565b610156565b6040516100ac9190610ac5565b60405180910390f35b6100bd61018c565b6040516100ca91906109be565b60405180910390f35b6100db6101a9565b6040516100e89190610b01565b60405180910390f35b61010b60048036038101906101069190610b41565b6101cf565b60405161011891906109be565b60405180910390f35b61013b60048036038101906101369190610a19565b61049b565b6040516101489190610c24565b60405180910390f35b601281565b6000816003811061016657600080fd5b016000915054906101000a900473ffffffffffffffffffffffffffffffffffffffff1681565b6012600a61019a9190610da8565b60016101a69190610df3565b81565b600360009054906101000a900473ffffffffffffffffffffffffffffffffffffffff1681565b60008160028111156101e4576101e3610e35565b5b8360028111156101f7576101f6610e35565b5b03610237576040517f08c379a000000000000000000000000000000000000000000000000000000000815260040161022e90610eb0565b60405180910390fd5b60006102428461053e565b9050600061024f8461053e565b90506000816012600a6102629190610da8565b848961026e9190610df3565b6102789190610df3565b6102829190610eff565b9050600086600281111561029957610298610e35565b5b600381106102aa576102a9610f30565b5b0160009054906101000a900473ffffffffffffffffffffffffffffffffffffffff1673ffffffffffffffffffffffffffffffffffffffff166323b872dd33308a6040518463ffffffff1660e01b815260040161030893929190610f80565b6020604051808303816000875af1158015610327573d6000803e3d6000fd5b505050506040513d601f19601f8201168201806040525081019061034b9190610fef565b61038a576040517f08c379a000000000000000000000000000000000000000000000000000000000815260040161038190611068565b60405180910390fd5b600085600281111561039f5761039e610e35565b5b600381106103b0576103af610f30565b5b0160009054906101000a900473ffffffffffffffffffffffffffffffffffffffff1673ffffffffffffffffffffffffffffffffffffffff1663a9059cbb33836040518363ffffffff1660e01b815260040161040c929190611088565b6020604051808303816000875af115801561042b573d6000803e3d6000fd5b505050506040513d601f19601f8201168201806040525081019061044f9190610fef565b61048e576040517f08c379a000000000000000000000000000000000000000000000000000000000815260040161048590611068565b60405180910390fd5b8093505050509392505050565b600481600281106104ab57600080fd5b0160009150905080546104bd906110e0565b80601f01602080910402602001604051908101604052809291908181526020018280546104e9906110e0565b80156105365780601f1061050b57610100808354040283529160200191610536565b820191906000526020600020905b81548152906001019060200180831161051957829003601f168201915b505050505081565b600060028081111561055357610552610e35565b5b82600281111561056657610565610e35565b5b0361058c576012600a6105799190610da8565b60016105859190610df3565b90506107b7565b600060028111156105a05761059f610e35565b5b8260028111156105b3576105b2610e35565b5b03610684576000600360009054906101000a900473ffffffffffffffffffffffffffffffffffffffff1673ffffffffffffffffffffffffffffffffffffffff1663ed5ae681600460006002811061060d5761060c610f30565b5b016040518263ffffffff1660e01b815260040161062a91906111aa565b600060405180830381865afa158015610647573d6000803e3d6000fd5b505050506040513d6000823e3d601f19601f820116820180604052508101906106709190611307565b50905061067c816107bc565b9150506107b7565b6001600281111561069857610697610e35565b5b8260028111156106ab576106aa610e35565b5b0361077c576000600360009054906101000a900473ffffffffffffffffffffffffffffffffffffffff1673ffffffffffffffffffffffffffffffffffffffff1663ed5ae681600460016002811061070557610704610f30565b5b016040518263ffffffff1660e01b815260040161072291906111aa565b600060405180830381865afa15801561073f573d6000803e3d6000fd5b505050506040513d6000823e3d601f19601f820116820180604052508101906107689190611307565b509050610774816107bc565b9150506107b7565b6040517f08c379a00000000000000000000000000000000000000000000000000000000081526004016107ae906113af565b60405180910390fd5b919050565b6000808290506000806000805b845181101561093357603060f81b8582815181106107ea576107e9610f30565b5b602001015160f81c60f81b7effffffffffffffffffffffffffffffffffffffffffffffffffffffffffffff1916101580156108685750603960f81b85828151811061083857610837610f30565b5b602001015160f81c60f81b7effffffffffffffffffffffffffffffffffffffffffffffffffffffffffffff191611155b156108d057603085828151811061088257610881610f30565b5b602001015160f81c60f81b60f81c60ff1661089d91906113cf565b600a856108aa9190610df3565b6108b49190611403565b935082156108cb5781806108c790611437565b9250505b610920565b602e60f81b8582815181106108e8576108e7610f30565b5b602001015160f81c60f81b7effffffffffffffffffffffffffffffffffffffffffffffffffffffffffffff19160361091f57600192505b5b808061092b90611437565b9150506107c9565b5060128110156109685780601261094a91906113cf565b600a6109569190610da8565b836109619190610df3565b9250610999565b60128111156109985760128161097e91906113cf565b600a61098a9190610da8565b836109959190610eff565b92505b5b82945050505050919050565b6000819050919050565b6109b8816109a5565b82525050565b60006020820190506109d360008301846109af565b92915050565b6000604051905090565b600080fd5b600080fd5b6109f6816109a5565b8114610a0157600080fd5b50565b600081359050610a13816109ed565b92915050565b600060208284031215610a2f57610a2e6109e3565b5b6000610a3d84828501610a04565b91505092915050565b600073ffffffffffffffffffffffffffffffffffffffff82169050919050565b6000819050919050565b6000610a8b610a86610a8184610a46565b610a66565b610a46565b9050919050565b6000610a9d82610a70565b9050919050565b6000610aaf82610a92565b9050919050565b610abf81610aa4565b82525050565b6000602082019050610ada6000830184610ab6565b92915050565b6000610aeb82610a92565b9050919050565b610afb81610ae0565b82525050565b6000602082019050610b166000830184610af2565b92915050565b60038110610b2957600080fd5b50565b600081359050610b3b81610b1c565b92915050565b600080600060608486031215610b5a57610b596109e3565b5b6000610b6886828701610a04565b9350506020610b7986828701610b2c565b9250506040610b8a86828701610b2c565b9150509250925092565b600081519050919050565b600082825260208201905092915050565b60005b83811015610bce578082015181840152602081019050610bb3565b60008484015250505050565b6000601f19601f8301169050919050565b6000610bf682610b94565b610c008185610b9f565b9350610c10818560208601610bb0565b610c1981610bda565b840191505092915050565b60006020820190508181036000830152610c3e8184610beb565b905092915050565b7f4e487b7100000000000000000000000000000000000000000000000000000000600052601160045260246000fd5b60008160011c9050919050565b6000808291508390505b6001851115610ccc57808604811115610ca857610ca7610c46565b5b6001851615610cb75780820291505b8081029050610cc585610c75565b9450610c8c565b94509492505050565b600082610ce55760019050610da1565b81610cf35760009050610da1565b8160018114610d095760028114610d1357610d42565b6001915050610da1565b60ff841115610d2557610d24610c46565b5b8360020a915084821115610d3c57610d3b610c46565b5b50610da1565b5060208310610133831016604e8410600b8410161715610d775782820a905083811115610d7257610d71610c46565b5b610da1565b610d848484846001610c82565b92509050818404811115610d9b57610d9a610c46565b5b81810290505b9392505050565b6000610db3826109a5565b9150610dbe836109a5565b9250610deb7fffffffffffffffffffffffffffffffffffffffffffffffffffffffffffffffff8484610cd5565b905092915050565b6000610dfe826109a5565b9150610e09836109a5565b9250828202610e17816109a5565b91508282048414831517610e2e57610e2d610c46565b5b5092915050565b7f4e487b7100000000000000000000000000000000000000000000000000000000600052602160045260246000fd5b7f43616e6e6f742073776170207468652073616d6520746f6b656e000000000000600082015250565b6000610e9a601a83610b9f565b9150610ea582610e64565b602082019050919050565b60006020820190508181036000830152610ec981610e8d565b9050919050565b7f4e487b7100000000000000000000000000000000000000000000000000000000600052601260045260246000fd5b6000610f0a826109a5565b9150610f15836109a5565b925082610f2557610f24610ed0565b5b828204905092915050565b7f4e487b7100000000000000000000000000000000000000000000000000000000600052603260045260246000fd5b6000610f6a82610a46565b9050919050565b610f7a81610f5f565b82525050565b6000606082019050610f956000830186610f71565b610fa26020830185610f71565b610faf60408301846109af565b949350505050565b60008115159050919050565b610fcc81610fb7565b8114610fd757600080fd5b50565b600081519050610fe981610fc3565b92915050565b600060208284031215611005576110046109e3565b5b600061101384828501610fda565b91505092915050565b7f546f6b656e207472616e73666572206661696c65640000000000000000000000600082015250565b6000611052601583610b9f565b915061105d8261101c565b602082019050919050565b6000602082019050818103600083015261108181611045565b9050919050565b600060408201905061109d6000830185610f71565b6110aa60208301846109af565b9392505050565b7f4e487b7100000000000000000000000000000000000000000000000000000000600052602260045260246000fd5b600060028204905060018216806110f857607f821691505b60208210810361110b5761110a6110b1565b5b50919050565b60008190508160005260206000209050919050565b60008154611133816110e0565b61113d8186610b9f565b94506001821660008114611158576001811461116e576111a1565b60ff1983168652811515602002860193506111a1565b61117785611111565b60005b838110156111995781548189015260018201915060208101905061117a565b808801955050505b50505092915050565b600060208201905081810360008301526111c48184611126565b905092915050565b600080fd5b600080fd5b7f4e487b7100000000000000000000000000000000000000000000000000000000600052604160045260246000fd5b61120e82610bda565b810181811067ffffffffffffffff8211171561122d5761122c6111d6565b5b80604052505050565b60006112406109d9565b905061124c8282611205565b919050565b600067ffffffffffffffff82111561126c5761126b6111d6565b5b61127582610bda565b9050602081019050919050565b600061129561129084611251565b611236565b9050828152602081018484840111156112b1576112b06111d1565b5b6112bc848285610bb0565b509392505050565b600082601f8301126112d9576112d86111cc565b5b81516112e9848260208601611282565b91505092915050565b600081519050611301816109ed565b92915050565b6000806040838503121561131e5761131d6109e3565b5b600083015167ffffffffffffffff81111561133c5761133b6109e8565b5b611348858286016112c4565b9250506020611359858286016112f2565b9150509250929050565b7f556e737570706f7274656420746f6b656e207479706500000000000000000000600082015250565b6000611399601683610b9f565b91506113a482611363565b602082019050919050565b600060208201905081810360008301526113c88161138c565b9050919050565b60006113da826109a5565b91506113e5836109a5565b92508282039050818111156113fd576113fc610c46565b5b92915050565b600061140e826109a5565b9150611419836109a5565b925082820190508082111561143157611430610c46565b5b92915050565b6000611442826109a5565b91507fffffffffffffffffffffffffffffffffffffffffffffffffffffffffffffffff820361147457611473610c46565b5b60018201905091905056fea2646970667358221220d3004afbc4ef7633b1e63350f81931254ec0b3f8270ced4b64c7b104c9b526c664736f6c63430008140033",
  "linkReferences": {},
  "deployedLinkReferences": {}
}